{
  "contractName": "medical",
  "abi": [
    {
      "inputs": [],
      "payable": false,
      "stateMutability": "nonpayable",
      "type": "constructor"
    },
    {
      "payable": true,
      "stateMutability": "payable",
      "type": "fallback"
    },
    {
      "constant": false,
      "inputs": [
        {
          "name": "_insuranceCorp",
          "type": "address"
        }
      ],
      "name": "setInsuranceCorp",
      "outputs": [],
      "payable": false,
      "stateMutability": "nonpayable",
      "type": "function"
    },
    {
      "constant": true,
      "inputs": [],
      "name": "getInsuranceCorp",
      "outputs": [
        {
          "name": "",
          "type": "address"
        }
      ],
      "payable": false,
      "stateMutability": "view",
      "type": "function"
    },
    {
      "constant": false,
      "inputs": [
        {
          "name": "_patient",
          "type": "address"
        },
        {
          "name": "_name",
          "type": "string"
        },
        {
          "name": "_addr",
          "type": "string"
        }
      ],
      "name": "insert_patient",
      "outputs": [],
      "payable": false,
      "stateMutability": "nonpayable",
      "type": "function"
    },
    {
      "constant": false,
      "inputs": [
        {
          "name": "_patient",
          "type": "address"
        },
        {
          "name": "_symptom",
          "type": "string"
        },
        {
          "name": "_cause",
          "type": "string"
        },
        {
          "name": "_day",
          "type": "uint256"
        },
        {
          "name": "_cost",
          "type": "uint256"
        }
      ],
      "name": "insert_record",
      "outputs": [
        {
          "name": "",
          "type": "uint256"
        }
      ],
      "payable": false,
      "stateMutability": "nonpayable",
      "type": "function"
    },
    {
      "constant": false,
      "inputs": [
        {
          "name": "_index",
          "type": "uint256"
        }
      ],
      "name": "pay_to_hospital",
      "outputs": [],
      "payable": true,
      "stateMutability": "payable",
      "type": "function"
    },
    {
      "constant": true,
      "inputs": [
        {
          "name": "_patient",
          "type": "address"
        },
        {
          "name": "_index",
          "type": "uint256"
        }
      ],
      "name": "query_record",
      "outputs": [
        {
          "components": [
            {
              "name": "symptom",
              "type": "string"
            },
            {
              "name": "cause",
              "type": "string"
            },
            {
              "name": "time",
              "type": "uint256"
            },
            {
              "name": "day",
              "type": "uint256"
            },
            {
              "name": "cost",
              "type": "uint256"
            },
            {
              "name": "exist",
              "type": "bool"
            },
            {
              "name": "pay",
              "type": "bool"
            }
          ],
          "name": "",
          "type": "tuple"
        }
      ],
      "payable": false,
      "stateMutability": "view",
      "type": "function"
    },
    {
      "constant": false,
      "inputs": [
        {
          "name": "_patient",
          "type": "address"
        },
        {
          "name": "_index",
          "type": "uint256"
        }
      ],
      "name": "pay_to_patient",
      "outputs": [],
      "payable": true,
      "stateMutability": "payable",
      "type": "function"
    },
    {
      "constant": true,
      "inputs": [],
      "name": "contract_balance",
      "outputs": [
        {
          "name": "",
          "type": "uint256"
        }
      ],
      "payable": false,
      "stateMutability": "view",
      "type": "function"
    }
  ],
  "bytecode": "0x608060405234801561001057600080fd5b5060008054600160a060020a031916331790556111ae806100326000396000f3fe60806040526004361061008d5763ffffffff7c0100000000000000000000000000000000000000000000000000000000600035041663057440d3811461008f5780630dafc45d146100ba578063151ed777146100cd5780635b1a8602146100ed57806380aaceee1461010d5780639c6652451461012d578063d8222a0f1461015a578063f449e9851461016d575b005b34801561009b57600080fd5b506100a461018f565b6040516100b191906110b5565b60405180910390f35b61008d6100c8366004610b5f565b610195565b3480156100d957600080fd5b506100a46100e8366004610c16565b6102c5565b3480156100f957600080fd5b5061008d610108366004610b99565b61045b565b34801561011957600080fd5b5061008d610128366004610b39565b610570565b34801561013957600080fd5b5061014d610148366004610b5f565b6105cc565b6040516100b191906110a4565b61008d610168366004610cbb565b61085d565b34801561017957600080fd5b506101826109cd565b6040516100b19190610ff6565b30315b90565b600160a060020a038216600090815260026020908152604080832033845290915290205460ff1615156001146101e95760405160e560020a62461bcd0281526004016101e090611004565b60405180910390fd5b600160a060020a038216600090815260016020818152604080842085855260030190915290912060050154610100900460ff1615151461023e5760405160e560020a62461bcd0281526004016101e090611064565b600160a060020a038216600090815260016020908152604080832084845260030190915290206004015434811461028a5760405160e560020a62461bcd0281526004016101e090611014565b604051600160a060020a038416903480156108fc02916000818181858888f193505050501580156102bf573d6000803e3d6000fd5b50505050565b60008054600160a060020a031633146102f35760405160e560020a62461bcd0281526004016101e090611054565b600160a060020a03861660009081526001602081905260409091206004015460a060020a900460ff1615151461033e5760405160e560020a62461bcd0281526004016101e090611024565b600160a060020a038616600090815260016020819052604090912060020180549091019081905561036d6109ec565b506040805160e0810182528781526020808201889052428284015260608201879052670de0b6b3a764000086026080830152600160a08301819052600060c08401819052600160a060020a038c16815290825283812085825260030182529290922081518051929384936103e49284920190610a2e565b5060208281015180516103fd9260018501920190610a2e565b5060408201516002820155606082015160038201556080820151600482015560a08201516005909101805460c09093015115156101000261ff001992151560ff19909416939093179190911691909117905550905095945050505050565b600054600160a060020a031633146104885760405160e560020a62461bcd0281526004016101e090611054565b600160a060020a03831660009081526001602052604090206004015460a060020a900460ff16156104ce5760405160e560020a62461bcd0281526004016101e090611094565b600160a060020a038316600090815260016020908152604090912083516104f792850190610a2e565b50600160a060020a0383166000908152600160208181526040909220835161052793919092019190840190610a2e565b505050600160a060020a031660009081526001602052604081206002810191909155600401805474ff0000000000000000000000000000000000000000191660a060020a179055565b3360009081526001602081815260408084206004018054600160a060020a0390961673ffffffffffffffffffffffffffffffffffffffff199096168617905560028252808420948452939052919020805460ff19169091179055565b6105d46109ec565b600160a060020a038316600090815260026020908152604080832033845290915290205460ff16151560011461061f5760405160e560020a62461bcd0281526004016101e090611044565b600160a060020a03831660009081526001602081905260409091206004015460a060020a900460ff1615151461066a5760405160e560020a62461bcd0281526004016101e090611024565b600160a060020a03831660009081526001602081815260408084208685526003019091529091206005015460ff161515146106ba5760405160e560020a62461bcd0281526004016101e090611074565b600160a060020a038316600090815260016020818152604080842086855260030182529283902083518154601f600260001961010097841615880201909216919091049081018490049093028101840190945260e0840182815290928492849184018282801561076b5780601f106107405761010080835404028352916020019161076b565b820191906000526020600020905b81548152906001019060200180831161074e57829003601f168201915b50505050508152602001600182018054600181600116156101000203166002900480601f01602080910402602001604051908101604052809291908181526020018280546001816001161561010002031660029004801561080d5780601f106107e25761010080835404028352916020019161080d565b820191906000526020600020905b8154815290600101906020018083116107f057829003601f168201915b505050918352505060028201546020820152600382015460408201526004820154606082015260059091015460ff8082161515608084015261010090910416151560a09091015290505b92915050565b3360009081526001602081905260409091206004015460a060020a900460ff1615151461089f5760405160e560020a62461bcd0281526004016101e090611024565b3360009081526001602081815260408084208585526003019091529091206005015460ff161515146108e65760405160e560020a62461bcd0281526004016101e090611074565b336000908152600160209081526040808320848452600301909152902060050154610100900460ff161561092f5760405160e560020a62461bcd0281526004016101e090611034565b33600090815260016020908152604080832084845260030190915290206004015434146109715760405160e560020a62461bcd0281526004016101e090611084565b336000908152600160209081526040808320848452600301909152808220600501805461ff0019166101001790555130913480156108fc02929091818181858888f193505050501580156109c9573d6000803e3d6000fd5b5050565b33600090815260016020526040902060040154600160a060020a031690565b60e06040519081016040528060608152602001606081526020016000815260200160008152602001600081526020016000151581526020016000151581525090565b828054600181600116156101000203166002900490600052602060002090601f016020900481019282601f10610a6f57805160ff1916838001178555610a9c565b82800160010185558215610a9c579182015b82811115610a9c578251825591602001919060010190610a81565b50610aa8929150610aac565b5090565b61019291905b80821115610aa85760008155600101610ab2565b6000610ad28235611116565b9392505050565b6000601f82018313610aea57600080fd5b8135610afd610af8826110ea565b6110c3565b91508082526020830160208301858383011115610b1957600080fd5b610b24838284611132565b50505092915050565b6000610ad28235610192565b600060208284031215610b4b57600080fd5b6000610b578484610ac6565b949350505050565b60008060408385031215610b7257600080fd5b6000610b7e8585610ac6565b9250506020610b8f85828601610b2d565b9150509250929050565b600080600060608486031215610bae57600080fd5b6000610bba8686610ac6565b935050602084013567ffffffffffffffff811115610bd757600080fd5b610be386828701610ad9565b925050604084013567ffffffffffffffff811115610c0057600080fd5b610c0c86828701610ad9565b9150509250925092565b600080600080600060a08688031215610c2e57600080fd5b6000610c3a8888610ac6565b955050602086013567ffffffffffffffff811115610c5757600080fd5b610c6388828901610ad9565b945050604086013567ffffffffffffffff811115610c8057600080fd5b610c8c88828901610ad9565b9350506060610c9d88828901610b2d565b9250506080610cae88828901610b2d565b9150509295509295909350565b600060208284031215610ccd57600080fd5b6000610b578484610b2d565b610ce281611116565b82525050565b610ce281611121565b6000610cfc82611112565b808452610d1081602086016020860161113e565b610d198161116a565b9093016020019392505050565b602481527f20696e737572616e6365436f72702063616e206e6f7420617574686f72697a6160208201527f74696f6e00000000000000000000000000000000000000000000000000000000604082015260600190565b600d81527f2076616c7565206572726f722000000000000000000000000000000000000000602082015260400190565b601381527f70617469656e7420206e6f742020657869737400000000000000000000000000602082015260400190565b601181527f616c726561647920706179206d6f6e6579000000000000000000000000000000602082015260400190565b602281527f20696e737572616e6365436f7270206469646e7420617574686f72697a61746960208201527f6f6e000000000000000000000000000000000000000000000000000000000000604082015260600190565b601681527f4f6e6c7920486f73706974616c2063616e207573652000000000000000000000602082015260400190565b601a81527f20796f75206469646e742070617920746f20686f73706974616c000000000000602082015260400190565b601281527f7265636f726420206e6f74202065786973740000000000000000000000000000602082015260400190565b600981527f706179206572726f720000000000000000000000000000000000000000000000602082015260400190565b600e81527f70617469656e7420206578697374000000000000000000000000000000000000602082015260400190565b805160e080845260009190840190610f6a8282610cf1565b91505060208301518482036020860152610f848282610cf1565b9150506040830151610f996040860182610fed565b506060830151610fac6060860182610fed565b506080830151610fbf6080860182610fed565b5060a0830151610fd260a0860182610ce8565b5060c0830151610fe560c0860182610ce8565b509392505050565b610ce281610192565b602081016108578284610cd9565b6020808252810161085781610d26565b6020808252810161085781610d7c565b6020808252810161085781610dac565b6020808252810161085781610ddc565b6020808252810161085781610e0c565b6020808252810161085781610e62565b6020808252810161085781610e92565b6020808252810161085781610ec2565b6020808252810161085781610ef2565b6020808252810161085781610f22565b60208082528101610ad28184610f52565b602081016108578284610fed565b60405181810167ffffffffffffffff811182821017156110e257600080fd5b604052919050565b600067ffffffffffffffff82111561110157600080fd5b506020601f91909101601f19160190565b5190565b600061085782611126565b151590565b600160a060020a031690565b82818337506000910152565b60005b83811015611159578181015183820152602001611141565b838111156102bf5750506000910152565b601f01601f19169056fea265627a7a7230582023efa04f2d6a89d49e6185e4b250859872e9b20d39b26f7fa025fa6ca85f41d26c6578706572696d656e74616cf50037",
  "source": "pragma solidity 0.5.0;\r\npragma experimental ABIEncoderV2;\r\n\r\ncontract  medical{\r\n    \r\n\r\n    address  hospital ; // 醫院EOA\r\n\r\n    //病歷資料\r\n    struct MedicalRecord{\r\n        string symptom ; //症狀\r\n        string cause ; //病因\r\n        uint time ; //住院日期\r\n        uint day;  // 住院天數\r\n        uint cost; //住院花費\r\n        bool exist; // 是否有紀錄\r\n        bool pay ; //是否繳費\r\n    }\r\n    \r\n    //病人資料\r\n    struct patient{\r\n        string name ; //姓名\r\n        string addr ; //地址\r\n        uint recordCount; //病歷總量\r\n        mapping(uint => MedicalRecord) records; //病例\r\n        address insuranceCorp ; // 保險公司\r\n        bool exist; // 是否有紀錄\r\n    }\r\n    \r\n \r\n    \r\n    mapping(address => patient) private patientData;  //儲存病患所有資料\r\n    mapping(address => mapping(address => bool)) authorization ; //授權狀態\r\n\r\n    constructor()  public {\r\n        hospital = msg.sender;    //醫院為合約擁有者 \r\n    }\r\n    \r\n    modifier onlyHospital{\r\n        require(hospital == msg.sender , \"Only Hospital can use \");\r\n        _;\r\n    }\r\n    \r\n\r\n    \r\n    //病患授權保險公司\r\n    function setInsuranceCorp(address _insuranceCorp) public  {\r\n        patientData[msg.sender].insuranceCorp = _insuranceCorp ;\r\n        authorization[msg.sender][_insuranceCorp] = true ;\r\n    } \r\n    \r\n    //查詢保險EOA\r\n    function getInsuranceCorp() public view returns(address){\r\n        \r\n        return patientData[msg.sender].insuranceCorp ;\r\n        \r\n    } \r\n    \r\n    //新增病患基本資料\r\n    function insert_patient(address _patient ,string memory _name , string memory _addr) public onlyHospital{\r\n        \r\n        require(!patientData[_patient].exist , \"patient  exist\");\r\n        patientData[_patient].name = _name;\r\n        patientData[_patient].addr = _addr ;\r\n        patientData[_patient].recordCount = 0;\r\n        patientData[_patient].exist = true ; \r\n    }\r\n    \r\n    \r\n    //新增病患住院資料\r\n    function insert_record(address  _patient,string memory _symptom , string memory _cause , uint _day , uint _cost) public onlyHospital returns(uint){\r\n         require(patientData[_patient].exist == true , \"patient  not  exist\");\r\n         \r\n        uint index = patientData[_patient].recordCount +=1 ;\r\n        \r\n        MedicalRecord  memory record = MedicalRecord({\r\n           symptom : _symptom ,\r\n           cause : _cause ,\r\n           time : now ,\r\n           day : _day ,\r\n           cost : _cost * 1 ether ,\r\n           exist : true,\r\n           pay : false\r\n        });\r\n        \r\n        patientData[_patient].records[index] = record; //將病例儲存進病患資料中\r\n        \r\n        return index ; \r\n    }\r\n    \r\n    \r\n    //病患繳清帳單\r\n    function pay_to_hospital(uint _index ) public payable {\r\n        require(patientData[msg.sender].exist == true , \"patient  not  exist\");\r\n        require(patientData[msg.sender].records[_index].exist == true , \"record  not  exist\");\r\n        require(patientData[msg.sender].records[_index].pay == false , \"already pay money\");\r\n        require(patientData[msg.sender].records[_index].cost == msg.value , \"pay error\");\r\n        \r\n        patientData[msg.sender].records[_index].pay =true ;\r\n\r\n        //轉帳到合約\r\n        address(this).transfer(msg.value) ;\r\n\r\n    }\r\n    \r\n    //保險公司申請病患資料\r\n    function query_record(address _patient , uint _index) public view returns(MedicalRecord memory){\r\n        \r\n        require(authorization[_patient][msg.sender] == true, \" insuranceCorp didnt authorization\");\r\n        require(patientData[_patient].exist == true , \"patient  not  exist\");\r\n        require(patientData[_patient].records[_index].exist == true , \"record  not  exist\");\r\n        \r\n        return patientData[_patient].records[_index];\r\n    } \r\n    \r\n    \r\n    //保險公司理賠給病患\r\n    \r\n    function pay_to_patient(address payable _patient , uint _index) public payable{\r\n        require(authorization[_patient][msg.sender] == true, \" insuranceCorp can not authorization\");\r\n        require(patientData[_patient].records[_index].pay == true , \" you didnt pay to hospital\");\r\n        uint money =  patientData[_patient].records[_index].cost;\r\n        require( money == msg.value , \" value error \");\r\n        _patient.transfer(msg.value);\r\n\r\n    } \r\n    \r\n    function contract_balance() public view returns(uint){\r\n        \r\n        return address(this).balance ;\r\n    }\r\n    \r\n    \r\n    function () external payable{}\r\n    \r\n}\r\n",
  "sourcePath": "c:/Users/user/Desktop/BLOCKCHAIN USECASE MEDICAL/contracts/medical.sol",
  "compiler": {
    "name": "solc",
    "version": "0.5.0+commit.1d4f565a.Emscripten.clang"
  },
  "schemaVersion": "3.3.1",
  "updatedAt": "2020-11-20T03:03:29.725Z",
  "devdoc": {
    "methods": {}
  },
  "userdoc": {
    "methods": {}
  }
}